{
  "_format": "hh-sol-artifact-1",
  "contractName": "DomainService",
  "sourceName": "contracts/DomainService.sol",
  "abi": [
    {
      "anonymous": false,
      "inputs": [
        {
          "indexed": false,
          "internalType": "address",
          "name": "owner",
          "type": "address"
        },
        {
          "indexed": false,
          "internalType": "string",
          "name": "domainName",
          "type": "string"
        },
        {
          "indexed": false,
          "internalType": "string",
          "name": "ARecord",
          "type": "string"
        },
        {
          "indexed": false,
          "internalType": "bool",
          "name": "exist",
          "type": "bool"
        }
      ],
      "name": "DomainCreated",
      "type": "event"
    },
    {
      "anonymous": false,
      "inputs": [
        {
          "indexed": false,
          "internalType": "string",
          "name": "domainName",
          "type": "string"
        }
      ],
      "name": "DomainDeleted",
      "type": "event"
    },
    {
      "anonymous": false,
      "inputs": [
        {
          "indexed": false,
          "internalType": "string",
          "name": "ARecord",
          "type": "string"
        }
      ],
      "name": "DomainUpdated",
      "type": "event"
    },
    {
      "inputs": [
        {
          "internalType": "address",
          "name": "owner",
          "type": "address"
        },
        {
          "internalType": "string",
          "name": "domainName",
          "type": "string"
        },
        {
          "internalType": "string",
          "name": "ARecord",
          "type": "string"
        }
      ],
      "name": "createDomain",
      "outputs": [
        {
          "internalType": "bool",
          "name": "",
          "type": "bool"
        }
      ],
      "stateMutability": "nonpayable",
      "type": "function"
    },
    {
      "inputs": [
        {
          "internalType": "address",
          "name": "owner",
          "type": "address"
        },
        {
          "internalType": "string",
          "name": "domainName",
          "type": "string"
        }
      ],
      "name": "deleteDomain",
      "outputs": [
        {
          "internalType": "bool",
          "name": "",
          "type": "bool"
        }
      ],
      "stateMutability": "nonpayable",
      "type": "function"
    },
    {
      "inputs": [
        {
          "internalType": "string",
          "name": "domainName",
          "type": "string"
        }
      ],
      "name": "domainLookup",
      "outputs": [
        {
          "internalType": "string",
          "name": "",
          "type": "string"
        }
      ],
      "stateMutability": "view",
      "type": "function"
    },
    {
      "inputs": [
        {
          "internalType": "string",
          "name": "",
          "type": "string"
        }
      ],
      "name": "domains",
      "outputs": [
        {
          "internalType": "address",
          "name": "owner",
          "type": "address"
        },
        {
          "internalType": "string",
          "name": "domainName",
          "type": "string"
        },
        {
          "internalType": "string",
          "name": "ARecord",
          "type": "string"
        },
        {
          "internalType": "bool",
          "name": "exist",
          "type": "bool"
        }
      ],
      "stateMutability": "view",
      "type": "function"
    },
    {
      "inputs": [
        {
          "internalType": "address",
          "name": "owner",
          "type": "address"
        },
        {
          "internalType": "string",
          "name": "domainName",
          "type": "string"
        },
        {
          "internalType": "string",
          "name": "ARecord",
          "type": "string"
        }
      ],
      "name": "updateDomain",
      "outputs": [
        {
          "internalType": "bool",
          "name": "",
          "type": "bool"
        }
      ],
      "stateMutability": "nonpayable",
      "type": "function"
    }
  ],
  "bytecode": "0x608060405234801561001057600080fd5b50611330806100206000396000f3fe608060405234801561001057600080fd5b50600436106100575760003560e01c8063264492351461005c57806338ad9f741461008f5780633ce8e78f146100bf578063a415caae146100ef578063d4dae89d1461011f575b600080fd5b61007660048036038101906100719190610bb4565b61014f565b6040516100869493929190610cd8565b60405180910390f35b6100a960048036038101906100a49190610d57565b6102d2565b6040516100b69190610de2565b60405180910390f35b6100d960048036038101906100d49190610dfd565b610488565b6040516100e69190610de2565b60405180910390f35b61010960048036038101906101049190610d57565b610671565b6040516101169190610de2565b60405180910390f35b61013960048036038101906101349190610bb4565b6108d3565b6040516101469190610e59565b60405180910390f35b6000818051602081018201805184825260208301602085012081835280955050505050506000915090508060000160009054906101000a900473ffffffffffffffffffffffffffffffffffffffff16908060010180546101ae90610eaa565b80601f01602080910402602001604051908101604052809291908181526020018280546101da90610eaa565b80156102275780601f106101fc57610100808354040283529160200191610227565b820191906000526020600020905b81548152906001019060200180831161020a57829003601f168201915b50505050509080600201805461023c90610eaa565b80601f016020809104026020016040519081016040528092919081815260200182805461026890610eaa565b80156102b55780601f1061028a576101008083540402835291602001916102b5565b820191906000526020600020905b81548152906001019060200180831161029857829003601f168201915b5050505050908060030160009054906101000a900460ff16905084565b600082600015156000826040516102e99190610f17565b908152602001604051809103902060030160009054906101000a900460ff1615151461034a576040517f08c379a000000000000000000000000000000000000000000000000000000000815260040161034190610f7a565b60405180910390fd5b600060405180608001604052808773ffffffffffffffffffffffffffffffffffffffff168152602001868152602001858152602001600115158152509050806000866040516103999190610f17565b908152602001604051809103902060008201518160000160006101000a81548173ffffffffffffffffffffffffffffffffffffffff021916908373ffffffffffffffffffffffffffffffffffffffff16021790555060208201518160010190816104039190611150565b5060408201518160020190816104199190611150565b5060608201518160030160006101000a81548160ff0219169083151502179055509050507f345cf64908306f9d7b4d9f76a42afe80eb919e20ea6651cc58613563a4a920fd86868660016040516104739493929190610cd8565b60405180910390a16001925050509392505050565b600081838073ffffffffffffffffffffffffffffffffffffffff166000836040516104b39190610f17565b908152602001604051809103902060000160009054906101000a900473ffffffffffffffffffffffffffffffffffffffff1673ffffffffffffffffffffffffffffffffffffffff161461053b576040517f08c379a00000000000000000000000000000000000000000000000000000000081526004016105329061126e565b60405180910390fd5b83600115156000826040516105509190610f17565b908152602001604051809103902060030160009054906101000a900460ff161515146105b1576040517f08c379a00000000000000000000000000000000000000000000000000000000081526004016105a8906112da565b60405180910390fd5b6000856040516105c19190610f17565b9081526020016040518091039020600080820160006101000a81549073ffffffffffffffffffffffffffffffffffffffff021916905560018201600061060791906109fd565b60028201600061061791906109fd565b6003820160006101000a81549060ff021916905550507f9b449e8e6e58cfe4813dc8a38f233368018ddd99ddc223e2f1a55eb22eefa2368560405161065c9190610e59565b60405180910390a16001935050505092915050565b600082848073ffffffffffffffffffffffffffffffffffffffff1660008360405161069c9190610f17565b908152602001604051809103902060000160009054906101000a900473ffffffffffffffffffffffffffffffffffffffff1673ffffffffffffffffffffffffffffffffffffffff1614610724576040517f08c379a000000000000000000000000000000000000000000000000000000000815260040161071b9061126e565b60405180910390fd5b84600115156000826040516107399190610f17565b908152602001604051809103902060030160009054906101000a900460ff1615151461079a576040517f08c379a0000000000000000000000000000000000000000000000000000000008152600401610791906112da565b60405180910390fd5b600060405180608001604052808973ffffffffffffffffffffffffffffffffffffffff168152602001888152602001878152602001600115158152509050806000886040516107e99190610f17565b908152602001604051809103902060008201518160000160006101000a81548173ffffffffffffffffffffffffffffffffffffffff021916908373ffffffffffffffffffffffffffffffffffffffff16021790555060208201518160010190816108539190611150565b5060408201518160020190816108699190611150565b5060608201518160030160006101000a81548160ff0219169083151502179055509050507ffe4d94448068b38fa4f90d468459f31695b3816d3b780071c1ae1c8a969ef543866040516108bc9190610e59565b60405180910390a160019450505050509392505050565b606081600115156000826040516108ea9190610f17565b908152602001604051809103902060030160009054906101000a900460ff1615151461094b576040517f08c379a0000000000000000000000000000000000000000000000000000000008152600401610942906112da565b60405180910390fd5b60008360405161095b9190610f17565b9081526020016040518091039020600201805461097790610eaa565b80601f01602080910402602001604051908101604052809291908181526020018280546109a390610eaa565b80156109f05780601f106109c5576101008083540402835291602001916109f0565b820191906000526020600020905b8154815290600101906020018083116109d357829003601f168201915b5050505050915050919050565b508054610a0990610eaa565b6000825580601f10610a1b5750610a3a565b601f016020900490600052602060002090810190610a399190610a3d565b5b50565b5b80821115610a56576000816000905550600101610a3e565b5090565b6000604051905090565b600080fd5b600080fd5b600080fd5b600080fd5b6000601f19601f8301169050919050565b7f4e487b7100000000000000000000000000000000000000000000000000000000600052604160045260246000fd5b610ac182610a78565b810181811067ffffffffffffffff82111715610ae057610adf610a89565b5b80604052505050565b6000610af3610a5a565b9050610aff8282610ab8565b919050565b600067ffffffffffffffff821115610b1f57610b1e610a89565b5b610b2882610a78565b9050602081019050919050565b82818337600083830152505050565b6000610b57610b5284610b04565b610ae9565b905082815260208101848484011115610b7357610b72610a73565b5b610b7e848285610b35565b509392505050565b600082601f830112610b9b57610b9a610a6e565b5b8135610bab848260208601610b44565b91505092915050565b600060208284031215610bca57610bc9610a64565b5b600082013567ffffffffffffffff811115610be857610be7610a69565b5b610bf484828501610b86565b91505092915050565b600073ffffffffffffffffffffffffffffffffffffffff82169050919050565b6000610c2882610bfd565b9050919050565b610c3881610c1d565b82525050565b600081519050919050565b600082825260208201905092915050565b60005b83811015610c78578082015181840152602081019050610c5d565b60008484015250505050565b6000610c8f82610c3e565b610c998185610c49565b9350610ca9818560208601610c5a565b610cb281610a78565b840191505092915050565b60008115159050919050565b610cd281610cbd565b82525050565b6000608082019050610ced6000830187610c2f565b8181036020830152610cff8186610c84565b90508181036040830152610d138185610c84565b9050610d226060830184610cc9565b95945050505050565b610d3481610c1d565b8114610d3f57600080fd5b50565b600081359050610d5181610d2b565b92915050565b600080600060608486031215610d7057610d6f610a64565b5b6000610d7e86828701610d42565b935050602084013567ffffffffffffffff811115610d9f57610d9e610a69565b5b610dab86828701610b86565b925050604084013567ffffffffffffffff811115610dcc57610dcb610a69565b5b610dd886828701610b86565b9150509250925092565b6000602082019050610df76000830184610cc9565b92915050565b60008060408385031215610e1457610e13610a64565b5b6000610e2285828601610d42565b925050602083013567ffffffffffffffff811115610e4357610e42610a69565b5b610e4f85828601610b86565b9150509250929050565b60006020820190508181036000830152610e738184610c84565b905092915050565b7f4e487b7100000000000000000000000000000000000000000000000000000000600052602260045260246000fd5b60006002820490506001821680610ec257607f821691505b602082108103610ed557610ed4610e7b565b5b50919050565b600081905092915050565b6000610ef182610c3e565b610efb8185610edb565b9350610f0b818560208601610c5a565b80840191505092915050565b6000610f238284610ee6565b915081905092915050565b7f446f6d61696e2073756461682061646100000000000000000000000000000000600082015250565b6000610f64601083610c49565b9150610f6f82610f2e565b602082019050919050565b60006020820190508181036000830152610f9381610f57565b9050919050565b60008190508160005260206000209050919050565b60006020601f8301049050919050565b600082821b905092915050565b600060088302610ffc7fffffffffffffffffffffffffffffffffffffffffffffffffffffffffffffffff82610fbf565b6110068683610fbf565b95508019841693508086168417925050509392505050565b6000819050919050565b6000819050919050565b600061104d6110486110438461101e565b611028565b61101e565b9050919050565b6000819050919050565b61106783611032565b61107b61107382611054565b848454610fcc565b825550505050565b600090565b611090611083565b61109b81848461105e565b505050565b5b818110156110bf576110b4600082611088565b6001810190506110a1565b5050565b601f821115611104576110d581610f9a565b6110de84610faf565b810160208510156110ed578190505b6111016110f985610faf565b8301826110a0565b50505b505050565b600082821c905092915050565b600061112760001984600802611109565b1980831691505092915050565b60006111408383611116565b9150826002028217905092915050565b61115982610c3e565b67ffffffffffffffff81111561117257611171610a89565b5b61117c8254610eaa565b6111878282856110c3565b600060209050601f8311600181146111ba57600084156111a8578287015190505b6111b28582611134565b86555061121a565b601f1984166111c886610f9a565b60005b828110156111f0578489015182556001820191506020850194506020810190506111cb565b8683101561120d5784890151611209601f891682611116565b8355505b6001600288020188555050505b505050505050565b7f446f6d61696e206e6f74206f776e65642062792073656e646572000000000000600082015250565b6000611258601a83610c49565b915061126382611222565b602082019050919050565b600060208201905081810360008301526112878161124b565b9050919050565b7f446f6d61696e20746964616b2061646100000000000000000000000000000000600082015250565b60006112c4601083610c49565b91506112cf8261128e565b602082019050919050565b600060208201905081810360008301526112f3816112b7565b905091905056fea2646970667358221220f03ee4f4c3315b91139cc997c7663743d2d1c4003d145ad39b2e17419e4eee7f64736f6c63430008180033",
  "linkReferences": {},
  "deployedLinkReferences": {}
}