{
  "_format": "hh-sol-artifact-1",
  "contractName": "DomainService",
  "sourceName": "contracts/DomainService.sol",
  "abi": [
    {
      "anonymous": false,
      "inputs": [
        {
          "indexed": false,
          "internalType": "address",
          "name": "owner",
          "type": "address"
        },
        {
          "indexed": false,
          "internalType": "string",
          "name": "domainName",
          "type": "string"
        },
        {
          "indexed": false,
          "internalType": "string",
          "name": "A",
          "type": "string"
        },
        {
          "indexed": false,
          "internalType": "string",
          "name": "CNAME",
          "type": "string"
        },
        {
          "indexed": false,
          "internalType": "string",
          "name": "NS",
          "type": "string"
        },
        {
          "indexed": false,
          "internalType": "string",
          "name": "MX",
          "type": "string"
        }
      ],
      "name": "DomainCreated",
      "type": "event"
    },
    {
      "inputs": [
        {
          "internalType": "address",
          "name": "owner",
          "type": "address"
        },
        {
          "internalType": "string",
          "name": "_domainName",
          "type": "string"
        },
        {
          "internalType": "string",
          "name": "_A",
          "type": "string"
        },
        {
          "internalType": "string",
          "name": "_CNAME",
          "type": "string"
        },
        {
          "internalType": "string",
          "name": "_NS",
          "type": "string"
        },
        {
          "internalType": "string",
          "name": "_MX",
          "type": "string"
        }
      ],
      "name": "createDomain",
      "outputs": [],
      "stateMutability": "nonpayable",
      "type": "function"
    },
    {
      "inputs": [
        {
          "internalType": "string",
          "name": "_domainName",
          "type": "string"
        }
      ],
      "name": "dnsLookup",
      "outputs": [
        {
          "components": [
            {
              "internalType": "address",
              "name": "owner",
              "type": "address"
            },
            {
              "internalType": "string",
              "name": "domainName",
              "type": "string"
            },
            {
              "internalType": "string",
              "name": "A",
              "type": "string"
            },
            {
              "internalType": "string",
              "name": "CNAME",
              "type": "string"
            },
            {
              "internalType": "string",
              "name": "NS",
              "type": "string"
            },
            {
              "internalType": "string",
              "name": "MX",
              "type": "string"
            },
            {
              "internalType": "bool",
              "name": "exists",
              "type": "bool"
            }
          ],
          "internalType": "struct DomainService.DomainStruct[]",
          "name": "",
          "type": "tuple[]"
        }
      ],
      "stateMutability": "view",
      "type": "function"
    },
    {
      "inputs": [
        {
          "internalType": "uint256",
          "name": "",
          "type": "uint256"
        }
      ],
      "name": "domain",
      "outputs": [
        {
          "internalType": "address",
          "name": "owner",
          "type": "address"
        },
        {
          "internalType": "string",
          "name": "domainName",
          "type": "string"
        },
        {
          "internalType": "string",
          "name": "A",
          "type": "string"
        },
        {
          "internalType": "string",
          "name": "CNAME",
          "type": "string"
        },
        {
          "internalType": "string",
          "name": "NS",
          "type": "string"
        },
        {
          "internalType": "string",
          "name": "MX",
          "type": "string"
        },
        {
          "internalType": "bool",
          "name": "exists",
          "type": "bool"
        }
      ],
      "stateMutability": "view",
      "type": "function"
    },
    {
      "inputs": [
        {
          "internalType": "string",
          "name": "",
          "type": "string"
        }
      ],
      "name": "domains",
      "outputs": [
        {
          "internalType": "address",
          "name": "owner",
          "type": "address"
        },
        {
          "internalType": "string",
          "name": "domainName",
          "type": "string"
        },
        {
          "internalType": "string",
          "name": "A",
          "type": "string"
        },
        {
          "internalType": "string",
          "name": "CNAME",
          "type": "string"
        },
        {
          "internalType": "string",
          "name": "NS",
          "type": "string"
        },
        {
          "internalType": "string",
          "name": "MX",
          "type": "string"
        },
        {
          "internalType": "bool",
          "name": "exists",
          "type": "bool"
        }
      ],
      "stateMutability": "view",
      "type": "function"
    }
  ],
  "bytecode": "0x608060405234801561001057600080fd5b50611909806100206000396000f3fe608060405234801561001057600080fd5b506004361061004c5760003560e01c806326449235146100515780633c40763e14610087578063b3463eb6146100b7578063bc29387f146100d3575b600080fd5b61006b60048036038101906100669190610ee4565b610109565b60405161007e9796959493929190611008565b60405180910390f35b6100a1600480360381019061009c9190610ee4565b610436565b6040516100ae919061127c565b60405180910390f35b6100d160048036038101906100cc91906112ca565b610857565b005b6100ed60048036038101906100e89190611419565b610a63565b6040516101009796959493929190611008565b60405180910390f35b6000818051602081018201805184825260208301602085012081835280955050505050506000915090508060000160009054906101000a900473ffffffffffffffffffffffffffffffffffffffff169080600101805461016890611475565b80601f016020809104026020016040519081016040528092919081815260200182805461019490611475565b80156101e15780601f106101b6576101008083540402835291602001916101e1565b820191906000526020600020905b8154815290600101906020018083116101c457829003601f168201915b5050505050908060020180546101f690611475565b80601f016020809104026020016040519081016040528092919081815260200182805461022290611475565b801561026f5780601f106102445761010080835404028352916020019161026f565b820191906000526020600020905b81548152906001019060200180831161025257829003601f168201915b50505050509080600301805461028490611475565b80601f01602080910402602001604051908101604052809291908181526020018280546102b090611475565b80156102fd5780601f106102d2576101008083540402835291602001916102fd565b820191906000526020600020905b8154815290600101906020018083116102e057829003601f168201915b50505050509080600401805461031290611475565b80601f016020809104026020016040519081016040528092919081815260200182805461033e90611475565b801561038b5780601f106103605761010080835404028352916020019161038b565b820191906000526020600020905b81548152906001019060200180831161036e57829003601f168201915b5050505050908060050180546103a090611475565b80601f01602080910402602001604051908101604052809291908181526020018280546103cc90611475565b80156104195780601f106103ee57610100808354040283529160200191610419565b820191906000526020600020905b8154815290600101906020018083116103fc57829003601f168201915b5050505050908060060160009054906101000a900460ff16905087565b60606001151560008360405161044c91906114e2565b908152602001604051809103902060060160009054906101000a900460ff161515146104ad576040517f08c379a00000000000000000000000000000000000000000000000000000000081526004016104a490611545565b60405180910390fd5b6001805480602002602001604051908101604052809291908181526020016000905b8282101561084c57838290600052602060002090600702016040518060e00160405290816000820160009054906101000a900473ffffffffffffffffffffffffffffffffffffffff1673ffffffffffffffffffffffffffffffffffffffff1673ffffffffffffffffffffffffffffffffffffffff16815260200160018201805461055890611475565b80601f016020809104026020016040519081016040528092919081815260200182805461058490611475565b80156105d15780601f106105a6576101008083540402835291602001916105d1565b820191906000526020600020905b8154815290600101906020018083116105b457829003601f168201915b505050505081526020016002820180546105ea90611475565b80601f016020809104026020016040519081016040528092919081815260200182805461061690611475565b80156106635780601f1061063857610100808354040283529160200191610663565b820191906000526020600020905b81548152906001019060200180831161064657829003601f168201915b5050505050815260200160038201805461067c90611475565b80601f01602080910402602001604051908101604052809291908181526020018280546106a890611475565b80156106f55780601f106106ca576101008083540402835291602001916106f5565b820191906000526020600020905b8154815290600101906020018083116106d857829003601f168201915b5050505050815260200160048201805461070e90611475565b80601f016020809104026020016040519081016040528092919081815260200182805461073a90611475565b80156107875780601f1061075c57610100808354040283529160200191610787565b820191906000526020600020905b81548152906001019060200180831161076a57829003601f168201915b505050505081526020016005820180546107a090611475565b80601f01602080910402602001604051908101604052809291908181526020018280546107cc90611475565b80156108195780601f106107ee57610100808354040283529160200191610819565b820191906000526020600020905b8154815290600101906020018083116107fc57829003601f168201915b505050505081526020016006820160009054906101000a900460ff161515151581525050815260200190600101906104cf565b505050509050919050565b6000151560008660405161086b91906114e2565b908152602001604051809103902060060160009054906101000a900460ff161515146108cc576040517f08c379a00000000000000000000000000000000000000000000000000000000081526004016108c3906115b1565b60405180910390fd5b60016040518060e001604052808873ffffffffffffffffffffffffffffffffffffffff16815260200187815260200186815260200185815260200184815260200183815260200160011515815250908060018154018082558091505060019003906000526020600020906007020160009091909190915060008201518160000160006101000a81548173ffffffffffffffffffffffffffffffffffffffff021916908373ffffffffffffffffffffffffffffffffffffffff160217905550602082015181600101908161099f919061177d565b5060408201518160020190816109b5919061177d565b5060608201518160030190816109cb919061177d565b5060808201518160040190816109e1919061177d565b5060a08201518160050190816109f7919061177d565b5060c08201518160060160006101000a81548160ff02191690831515021790555050507f7fbff802f448bd9b3ca0c364fe5c43c785e382b6c1e00f31d6bfb819a6c7ec40868686868686604051610a539695949392919061184f565b60405180910390a1505050505050565b60018181548110610a7357600080fd5b90600052602060002090600702016000915090508060000160009054906101000a900473ffffffffffffffffffffffffffffffffffffffff1690806001018054610abc90611475565b80601f0160208091040260200160405190810160405280929190818152602001828054610ae890611475565b8015610b355780601f10610b0a57610100808354040283529160200191610b35565b820191906000526020600020905b815481529060010190602001808311610b1857829003601f168201915b505050505090806002018054610b4a90611475565b80601f0160208091040260200160405190810160405280929190818152602001828054610b7690611475565b8015610bc35780601f10610b9857610100808354040283529160200191610bc3565b820191906000526020600020905b815481529060010190602001808311610ba657829003601f168201915b505050505090806003018054610bd890611475565b80601f0160208091040260200160405190810160405280929190818152602001828054610c0490611475565b8015610c515780601f10610c2657610100808354040283529160200191610c51565b820191906000526020600020905b815481529060010190602001808311610c3457829003601f168201915b505050505090806004018054610c6690611475565b80601f0160208091040260200160405190810160405280929190818152602001828054610c9290611475565b8015610cdf5780601f10610cb457610100808354040283529160200191610cdf565b820191906000526020600020905b815481529060010190602001808311610cc257829003601f168201915b505050505090806005018054610cf490611475565b80601f0160208091040260200160405190810160405280929190818152602001828054610d2090611475565b8015610d6d5780601f10610d4257610100808354040283529160200191610d6d565b820191906000526020600020905b815481529060010190602001808311610d5057829003601f168201915b5050505050908060060160009054906101000a900460ff16905087565b6000604051905090565b600080fd5b600080fd5b600080fd5b600080fd5b6000601f19601f8301169050919050565b7f4e487b7100000000000000000000000000000000000000000000000000000000600052604160045260246000fd5b610df182610da8565b810181811067ffffffffffffffff82111715610e1057610e0f610db9565b5b80604052505050565b6000610e23610d8a565b9050610e2f8282610de8565b919050565b600067ffffffffffffffff821115610e4f57610e4e610db9565b5b610e5882610da8565b9050602081019050919050565b82818337600083830152505050565b6000610e87610e8284610e34565b610e19565b905082815260208101848484011115610ea357610ea2610da3565b5b610eae848285610e65565b509392505050565b600082601f830112610ecb57610eca610d9e565b5b8135610edb848260208601610e74565b91505092915050565b600060208284031215610efa57610ef9610d94565b5b600082013567ffffffffffffffff811115610f1857610f17610d99565b5b610f2484828501610eb6565b91505092915050565b600073ffffffffffffffffffffffffffffffffffffffff82169050919050565b6000610f5882610f2d565b9050919050565b610f6881610f4d565b82525050565b600081519050919050565b600082825260208201905092915050565b60005b83811015610fa8578082015181840152602081019050610f8d565b60008484015250505050565b6000610fbf82610f6e565b610fc98185610f79565b9350610fd9818560208601610f8a565b610fe281610da8565b840191505092915050565b60008115159050919050565b61100281610fed565b82525050565b600060e08201905061101d600083018a610f5f565b818103602083015261102f8189610fb4565b905081810360408301526110438188610fb4565b905081810360608301526110578187610fb4565b9050818103608083015261106b8186610fb4565b905081810360a083015261107f8185610fb4565b905061108e60c0830184610ff9565b98975050505050505050565b600081519050919050565b600082825260208201905092915050565b6000819050602082019050919050565b6110cf81610f4d565b82525050565b600082825260208201905092915050565b60006110f182610f6e565b6110fb81856110d5565b935061110b818560208601610f8a565b61111481610da8565b840191505092915050565b61112881610fed565b82525050565b600060e08301600083015161114660008601826110c6565b506020830151848203602086015261115e82826110e6565b9150506040830151848203604086015261117882826110e6565b9150506060830151848203606086015261119282826110e6565b915050608083015184820360808601526111ac82826110e6565b91505060a083015184820360a08601526111c682826110e6565b91505060c08301516111db60c086018261111f565b508091505092915050565b60006111f2838361112e565b905092915050565b6000602082019050919050565b60006112128261109a565b61121c81856110a5565b93508360208202850161122e856110b6565b8060005b8581101561126a578484038952815161124b85826111e6565b9450611256836111fa565b925060208a01995050600181019050611232565b50829750879550505050505092915050565b600060208201905081810360008301526112968184611207565b905092915050565b6112a781610f4d565b81146112b257600080fd5b50565b6000813590506112c48161129e565b92915050565b60008060008060008060c087890312156112e7576112e6610d94565b5b60006112f589828a016112b5565b965050602087013567ffffffffffffffff81111561131657611315610d99565b5b61132289828a01610eb6565b955050604087013567ffffffffffffffff81111561134357611342610d99565b5b61134f89828a01610eb6565b945050606087013567ffffffffffffffff8111156113705761136f610d99565b5b61137c89828a01610eb6565b935050608087013567ffffffffffffffff81111561139d5761139c610d99565b5b6113a989828a01610eb6565b92505060a087013567ffffffffffffffff8111156113ca576113c9610d99565b5b6113d689828a01610eb6565b9150509295509295509295565b6000819050919050565b6113f6816113e3565b811461140157600080fd5b50565b600081359050611413816113ed565b92915050565b60006020828403121561142f5761142e610d94565b5b600061143d84828501611404565b91505092915050565b7f4e487b7100000000000000000000000000000000000000000000000000000000600052602260045260246000fd5b6000600282049050600182168061148d57607f821691505b6020821081036114a05761149f611446565b5b50919050565b600081905092915050565b60006114bc82610f6e565b6114c681856114a6565b93506114d6818560208601610f8a565b80840191505092915050565b60006114ee82846114b1565b915081905092915050565b7f446f6d61696e20646f6573206e6f742065786973740000000000000000000000600082015250565b600061152f601583610f79565b915061153a826114f9565b602082019050919050565b6000602082019050818103600083015261155e81611522565b9050919050565b7f446f6d61696e20616c7265616479206578697374730000000000000000000000600082015250565b600061159b601583610f79565b91506115a682611565565b602082019050919050565b600060208201905081810360008301526115ca8161158e565b9050919050565b60008190508160005260206000209050919050565b60006020601f8301049050919050565b600082821b905092915050565b6000600883026116337fffffffffffffffffffffffffffffffffffffffffffffffffffffffffffffffff826115f6565b61163d86836115f6565b95508019841693508086168417925050509392505050565b6000819050919050565b600061167a611675611670846113e3565b611655565b6113e3565b9050919050565b6000819050919050565b6116948361165f565b6116a86116a082611681565b848454611603565b825550505050565b600090565b6116bd6116b0565b6116c881848461168b565b505050565b5b818110156116ec576116e16000826116b5565b6001810190506116ce565b5050565b601f82111561173157611702816115d1565b61170b846115e6565b8101602085101561171a578190505b61172e611726856115e6565b8301826116cd565b50505b505050565b600082821c905092915050565b600061175460001984600802611736565b1980831691505092915050565b600061176d8383611743565b9150826002028217905092915050565b61178682610f6e565b67ffffffffffffffff81111561179f5761179e610db9565b5b6117a98254611475565b6117b48282856116f0565b600060209050601f8311600181146117e757600084156117d5578287015190505b6117df8582611761565b865550611847565b601f1984166117f5866115d1565b60005b8281101561181d578489015182556001820191506020850194506020810190506117f8565b8683101561183a5784890151611836601f891682611743565b8355505b6001600288020188555050505b505050505050565b600060c0820190506118646000830189610f5f565b81810360208301526118768188610fb4565b9050818103604083015261188a8187610fb4565b9050818103606083015261189e8186610fb4565b905081810360808301526118b28185610fb4565b905081810360a08301526118c68184610fb4565b905097965050505050505056fea264697066735822122093736b944bf789bdd41bc9e34bfe362c3af08ea71d4b87520bd99da0b8feb47864736f6c63430008180033",
  "linkReferences": {},
  "deployedLinkReferences": {}
}